{"contracts/CustomGloveCurve.sol":{"CustomGloveCurve":{"abi":[{"inputs":[{"internalType":"address","name":"_poolManager","type":"address"}],"stateMutability":"nonpayable","type":"constructor"},{"inputs":[{"internalType":"uint256","name":"amountOut","type":"uint256"},{"internalType":"address","name":"input","type":"address"},{"internalType":"address","name":"output","type":"address"},{"internalType":"bool","name":"zeroForOne","type":"bool"}],"name":"getAmountInForExactOutput","outputs":[{"internalType":"uint256","name":"amountIn","type":"uint256"}],"stateMutability":"view","type":"function"},{"inputs":[{"internalType":"uint256","name":"amountIn","type":"uint256"},{"internalType":"address","name":"input","type":"address"},{"internalType":"address","name":"output","type":"address"},{"internalType":"bool","name":"zeroForOne","type":"bool"}],"name":"getAmountOutFromExactInput","outputs":[{"internalType":"uint256","name":"amountOut","type":"uint256"}],"stateMutability":"view","type":"function"},{"inputs":[],"name":"getCurrentPrice","outputs":[{"internalType":"uint256","name":"","type":"uint256"}],"stateMutability":"view","type":"function"},{"inputs":[],"name":"getStock","outputs":[{"internalType":"uint256","name":"","type":"uint256"}],"stateMutability":"view","type":"function"},{"inputs":[],"name":"poolManager","outputs":[{"internalType":"address","name":"","type":"address"}],"stateMutability":"view","type":"function"}],"evm":{"bytecode":{"linkReferences":{},"object":"608060405234801561001057600080fd5b50604051610d2f380380610d2f833981810160405281019061003291906100db565b806000806101000a81548173ffffffffffffffffffffffffffffffffffffffff021916908373ffffffffffffffffffffffffffffffffffffffff16021790555050610108565b600080fd5b600073ffffffffffffffffffffffffffffffffffffffff82169050919050565b60006100a88261007d565b9050919050565b6100b88161009d565b81146100c357600080fd5b50565b6000815190506100d5816100af565b92915050565b6000602082840312156100f1576100f0610078565b5b60006100ff848285016100c6565b91505092915050565b610c18806101176000396000f3fe608060405234801561001057600080fd5b50600436106100575760003560e01c806341dc44f41461005c578063d973448b1461008c578063dc4c90d3146100bc578063e38ffcd8146100da578063eb91d37e146100f8575b600080fd5b61007660048036038101906100719190610779565b610116565b60405161008391906107ef565b60405180910390f35b6100a660048036038101906100a19190610779565b610318565b6040516100b391906107ef565b60405180910390f35b6100c461050f565b6040516100d19190610819565b60405180910390f35b6100e2610533565b6040516100ef91906107ef565b60405180910390f35b6101006105bd565b60405161010d91906107ef565b60405180910390f35b60008073ffffffffffffffffffffffffffffffffffffffff168473ffffffffffffffffffffffffffffffffffffffff1614801561017e57503073ffffffffffffffffffffffffffffffffffffffff168373ffffffffffffffffffffffffffffffffffffffff16145b6101bd576040517f08c379a00000000000000000000000000000000000000000000000000000000081526004016101b490610891565b60405180910390fd5b816101fd576040517f08c379a00000000000000000000000000000000000000000000000000000000081526004016101f4906108fd565b60405180910390fd5b6000853073ffffffffffffffffffffffffffffffffffffffff166318160ddd6040518163ffffffff1660e01b8152600401602060405180830381865afa15801561024b573d6000803e3d6000fd5b505050506040513d601f19601f8201168201806040525081019061026f9190610932565b683635c9adc5dea00000610283919061098e565b61028d919061098e565b90506000670de0b6b3a764000082670df11778ebce20006102ae9190610af5565b66038d7ea4c680006102c09190610b40565b6102ca9190610bb1565b90506729a2241af62c000081116102e157806102eb565b6729a2241af62c00005b9050670de0b6b3a764000081886103029190610b40565b61030c9190610bb1565b92505050949350505050565b60008073ffffffffffffffffffffffffffffffffffffffff168473ffffffffffffffffffffffffffffffffffffffff1614801561038057503073ffffffffffffffffffffffffffffffffffffffff168373ffffffffffffffffffffffffffffffffffffffff16145b6103bf576040517f08c379a00000000000000000000000000000000000000000000000000000000081526004016103b690610891565b60405180910390fd5b816103ff576040517f08c379a00000000000000000000000000000000000000000000000000000000081526004016103f6906108fd565b60405180910390fd5b60003073ffffffffffffffffffffffffffffffffffffffff166318160ddd6040518163ffffffff1660e01b8152600401602060405180830381865afa15801561044c573d6000803e3d6000fd5b505050506040513d601f19601f820116820180604052508101906104709190610932565b683635c9adc5dea00000610484919061098e565b90506000670de0b6b3a764000082670df11778ebce20006104a59190610af5565b66038d7ea4c680006104b79190610b40565b6104c19190610bb1565b90506729a2241af62c000081116104d857806104e2565b6729a2241af62c00005b905080670de0b6b3a7640000886104f99190610b40565b6105039190610bb1565b92505050949350505050565b60008054906101000a900473ffffffffffffffffffffffffffffffffffffffff1681565b60003073ffffffffffffffffffffffffffffffffffffffff166318160ddd6040518163ffffffff1660e01b8152600401602060405180830381865afa158015610580573d6000803e3d6000fd5b505050506040513d601f19601f820116820180604052508101906105a49190610932565b683635c9adc5dea000006105b8919061098e565b905090565b6000803073ffffffffffffffffffffffffffffffffffffffff166318160ddd6040518163ffffffff1660e01b8152600401602060405180830381865afa15801561060b573d6000803e3d6000fd5b505050506040513d601f19601f8201168201806040525081019061062f9190610932565b683635c9adc5dea00000610643919061098e565b90506000670de0b6b3a764000082670df11778ebce20006106649190610af5565b66038d7ea4c680006106769190610b40565b6106809190610bb1565b90506729a2241af62c0000811161069757806106a1565b6729a2241af62c00005b9250505090565b600080fd5b6000819050919050565b6106c0816106ad565b81146106cb57600080fd5b50565b6000813590506106dd816106b7565b92915050565b600073ffffffffffffffffffffffffffffffffffffffff82169050919050565b600061070e826106e3565b9050919050565b61071e81610703565b811461072957600080fd5b50565b60008135905061073b81610715565b92915050565b60008115159050919050565b61075681610741565b811461076157600080fd5b50565b6000813590506107738161074d565b92915050565b60008060008060808587031215610793576107926106a8565b5b60006107a1878288016106ce565b94505060206107b28782880161072c565b93505060406107c38782880161072c565b92505060606107d487828801610764565b91505092959194509250565b6107e9816106ad565b82525050565b600060208201905061080460008301846107e0565b92915050565b61081381610703565b82525050565b600060208201905061082e600083018461080a565b92915050565b600082825260208201905092915050565b7f496e76616c69642063757272656e636965730000000000000000000000000000600082015250565b600061087b601283610834565b915061088682610845565b602082019050919050565b600060208201905081810360008301526108aa8161086e565b9050919050565b7f4f6e6c7920737570706f7274732045544820746f20474c4f5645000000000000600082015250565b60006108e7601a83610834565b91506108f2826108b1565b602082019050919050565b60006020820190508181036000830152610916816108da565b9050919050565b60008151905061092c816106b7565b92915050565b600060208284031215610948576109476106a8565b5b60006109568482850161091d565b91505092915050565b7f4e487b7100000000000000000000000000000000000000000000000000000000600052601160045260246000fd5b6000610999826106ad565b91506109a4836106ad565b92508282039050818111156109bc576109bb61095f565b5b92915050565b60008160011c9050919050565b6000808291508390505b6001851115610a19578086048111156109f5576109f461095f565b5b6001851615610a045780820291505b8081029050610a12856109c2565b94506109d9565b94509492505050565b600082610a325760019050610aee565b81610a405760009050610aee565b8160018114610a565760028114610a6057610a8f565b6001915050610aee565b60ff841115610a7257610a7161095f565b5b8360020a915084821115610a8957610a8861095f565b5b50610aee565b5060208310610133831016604e8410600b8410161715610ac45782820a905083811115610abf57610abe61095f565b5b610aee565b610ad184848460016109cf565b92509050818404811115610ae857610ae761095f565b5b81810290505b9392505050565b6000610b00826106ad565b9150610b0b836106ad565b9250610b387fffffffffffffffffffffffffffffffffffffffffffffffffffffffffffffffff8484610a22565b905092915050565b6000610b4b826106ad565b9150610b56836106ad565b9250828202610b64816106ad565b91508282048414831517610b7b57610b7a61095f565b5b5092915050565b7f4e487b7100000000000000000000000000000000000000000000000000000000600052601260045260246000fd5b6000610bbc826106ad565b9150610bc7836106ad565b925082610bd757610bd6610b82565b5b82820490509291505056fea2646970667358221220d19491efb450fe8f305748c7e44572b948258eb8daa689cd29760ff87a451c4664736f6c63430008180033","opcodes":"PUSH1 0x80 PUSH1 0x40 MSTORE CALLVALUE DUP1 ISZERO PUSH2 0x10 JUMPI PUSH1 0x0 DUP1 REVERT JUMPDEST POP PUSH1 0x40 MLOAD PUSH2 0xD2F CODESIZE SUB DUP1 PUSH2 0xD2F DUP4 CODECOPY DUP2 DUP2 ADD PUSH1 0x40 MSTORE DUP2 ADD SWAP1 PUSH2 0x32 SWAP2 SWAP1 PUSH2 0xDB JUMP JUMPDEST DUP1 PUSH1 0x0 DUP1 PUSH2 0x100 EXP DUP2 SLOAD DUP2 PUSH20 0xFFFFFFFFFFFFFFFFFFFFFFFFFFFFFFFFFFFFFFFF MUL NOT AND SWAP1 DUP4 PUSH20 0xFFFFFFFFFFFFFFFFFFFFFFFFFFFFFFFFFFFFFFFF AND MUL OR SWAP1 SSTORE POP POP PUSH2 0x108 JUMP JUMPDEST PUSH1 0x0 DUP1 REVERT JUMPDEST PUSH1 0x0 PUSH20 0xFFFFFFFFFFFFFFFFFFFFFFFFFFFFFFFFFFFFFFFF DUP3 AND SWAP1 POP SWAP2 SWAP1 POP JUMP JUMPDEST PUSH1 0x0 PUSH2 0xA8 DUP3 PUSH2 0x7D JUMP JUMPDEST SWAP1 POP SWAP2 SWAP1 POP JUMP JUMPDEST PUSH2 0xB8 DUP2 PUSH2 0x9D JUMP JUMPDEST DUP2 EQ PUSH2 0xC3 JUMPI PUSH1 0x0 DUP1 REVERT JUMPDEST POP JUMP JUMPDEST PUSH1 0x0 DUP2 MLOAD SWAP1 POP PUSH2 0xD5 DUP2 PUSH2 0xAF JUMP JUMPDEST SWAP3 SWAP2 POP POP JUMP JUMPDEST PUSH1 0x0 PUSH1 0x20 DUP3 DUP5 SUB SLT ISZERO PUSH2 0xF1 JUMPI PUSH2 0xF0 PUSH2 0x78 JUMP JUMPDEST JUMPDEST PUSH1 0x0 PUSH2 0xFF DUP5 DUP3 DUP6 ADD PUSH2 0xC6 JUMP JUMPDEST SWAP2 POP POP SWAP3 SWAP2 POP POP JUMP JUMPDEST PUSH2 0xC18 DUP1 PUSH2 0x117 PUSH1 0x0 CODECOPY PUSH1 0x0 RETURN INVALID PUSH1 0x80 PUSH1 0x40 MSTORE CALLVALUE DUP1 ISZERO PUSH2 0x10 JUMPI PUSH1 0x0 DUP1 REVERT JUMPDEST POP PUSH1 0x4 CALLDATASIZE LT PUSH2 0x57 JUMPI PUSH1 0x0 CALLDATALOAD PUSH1 0xE0 SHR DUP1 PUSH4 0x41DC44F4 EQ PUSH2 0x5C JUMPI DUP1 PUSH4 0xD973448B EQ PUSH2 0x8C JUMPI DUP1 PUSH4 0xDC4C90D3 EQ PUSH2 0xBC JUMPI DUP1 PUSH4 0xE38FFCD8 EQ PUSH2 0xDA JUMPI DUP1 PUSH4 0xEB91D37E EQ PUSH2 0xF8 JUMPI JUMPDEST PUSH1 0x0 DUP1 REVERT JUMPDEST PUSH2 0x76 PUSH1 0x4 DUP1 CALLDATASIZE SUB DUP2 ADD SWAP1 PUSH2 0x71 SWAP2 SWAP1 PUSH2 0x779 JUMP JUMPDEST PUSH2 0x116 JUMP JUMPDEST PUSH1 0x40 MLOAD PUSH2 0x83 SWAP2 SWAP1 PUSH2 0x7EF JUMP JUMPDEST PUSH1 0x40 MLOAD DUP1 SWAP2 SUB SWAP1 RETURN JUMPDEST PUSH2 0xA6 PUSH1 0x4 DUP1 CALLDATASIZE SUB DUP2 ADD SWAP1 PUSH2 0xA1 SWAP2 SWAP1 PUSH2 0x779 JUMP JUMPDEST PUSH2 0x318 JUMP JUMPDEST PUSH1 0x40 MLOAD PUSH2 0xB3 SWAP2 SWAP1 PUSH2 0x7EF JUMP JUMPDEST PUSH1 0x40 MLOAD DUP1 SWAP2 SUB SWAP1 RETURN JUMPDEST PUSH2 0xC4 PUSH2 0x50F JUMP JUMPDEST PUSH1 0x40 MLOAD PUSH2 0xD1 SWAP2 SWAP1 PUSH2 0x819 JUMP JUMPDEST PUSH1 0x40 MLOAD DUP1 SWAP2 SUB SWAP1 RETURN JUMPDEST PUSH2 0xE2 PUSH2 0x533 JUMP JUMPDEST PUSH1 0x40 MLOAD PUSH2 0xEF SWAP2 SWAP1 PUSH2 0x7EF JUMP JUMPDEST PUSH1 0x40 MLOAD DUP1 SWAP2 SUB SWAP1 RETURN JUMPDEST PUSH2 0x100 PUSH2 0x5BD JUMP JUMPDEST PUSH1 0x40 MLOAD PUSH2 0x10D SWAP2 SWAP1 PUSH2 0x7EF JUMP JUMPDEST PUSH1 0x40 MLOAD DUP1 SWAP2 SUB SWAP1 RETURN JUMPDEST PUSH1 0x0 DUP1 PUSH20 0xFFFFFFFFFFFFFFFFFFFFFFFFFFFFFFFFFFFFFFFF AND DUP5 PUSH20 0xFFFFFFFFFFFFFFFFFFFFFFFFFFFFFFFFFFFFFFFF AND EQ DUP1 ISZERO PUSH2 0x17E JUMPI POP ADDRESS PUSH20 0xFFFFFFFFFFFFFFFFFFFFFFFFFFFFFFFFFFFFFFFF AND DUP4 PUSH20 0xFFFFFFFFFFFFFFFFFFFFFFFFFFFFFFFFFFFFFFFF AND EQ JUMPDEST PUSH2 0x1BD JUMPI PUSH1 0x40 MLOAD PUSH32 0x8C379A000000000000000000000000000000000000000000000000000000000 DUP2 MSTORE PUSH1 0x4 ADD PUSH2 0x1B4 SWAP1 PUSH2 0x891 JUMP JUMPDEST PUSH1 0x40 MLOAD DUP1 SWAP2 SUB SWAP1 REVERT JUMPDEST DUP2 PUSH2 0x1FD JUMPI PUSH1 0x40 MLOAD PUSH32 0x8C379A000000000000000000000000000000000000000000000000000000000 DUP2 MSTORE PUSH1 0x4 ADD PUSH2 0x1F4 SWAP1 PUSH2 0x8FD JUMP JUMPDEST PUSH1 0x40 MLOAD DUP1 SWAP2 SUB SWAP1 REVERT JUMPDEST PUSH1 0x0 DUP6 ADDRESS PUSH20 0xFFFFFFFFFFFFFFFFFFFFFFFFFFFFFFFFFFFFFFFF AND PUSH4 0x18160DDD PUSH1 0x40 MLOAD DUP2 PUSH4 0xFFFFFFFF AND PUSH1 0xE0 SHL DUP2 MSTORE PUSH1 0x4 ADD PUSH1 0x20 PUSH1 0x40 MLOAD DUP1 DUP4 SUB DUP2 DUP7 GAS STATICCALL ISZERO DUP1 ISZERO PUSH2 0x24B JUMPI RETURNDATASIZE PUSH1 0x0 DUP1 RETURNDATACOPY RETURNDATASIZE PUSH1 0x0 REVERT JUMPDEST POP POP POP POP PUSH1 0x40 MLOAD RETURNDATASIZE PUSH1 0x1F NOT PUSH1 0x1F DUP3 ADD AND DUP3 ADD DUP1 PUSH1 0x40 MSTORE POP DUP2 ADD SWAP1 PUSH2 0x26F SWAP2 SWAP1 PUSH2 0x932 JUMP JUMPDEST PUSH9 0x3635C9ADC5DEA00000 PUSH2 0x283 SWAP2 SWAP1 PUSH2 0x98E JUMP JUMPDEST PUSH2 0x28D SWAP2 SWAP1 PUSH2 0x98E JUMP JUMPDEST SWAP1 POP PUSH1 0x0 PUSH8 0xDE0B6B3A7640000 DUP3 PUSH8 0xDF11778EBCE2000 PUSH2 0x2AE SWAP2 SWAP1 PUSH2 0xAF5 JUMP JUMPDEST PUSH7 0x38D7EA4C68000 PUSH2 0x2C0 SWAP2 SWAP1 PUSH2 0xB40 JUMP JUMPDEST PUSH2 0x2CA SWAP2 SWAP1 PUSH2 0xBB1 JUMP JUMPDEST SWAP1 POP PUSH8 0x29A2241AF62C0000 DUP2 GT PUSH2 0x2E1 JUMPI DUP1 PUSH2 0x2EB JUMP JUMPDEST PUSH8 0x29A2241AF62C0000 JUMPDEST SWAP1 POP PUSH8 0xDE0B6B3A7640000 DUP2 DUP9 PUSH2 0x302 SWAP2 SWAP1 PUSH2 0xB40 JUMP JUMPDEST PUSH2 0x30C SWAP2 SWAP1 PUSH2 0xBB1 JUMP JUMPDEST SWAP3 POP POP POP SWAP5 SWAP4 POP POP POP POP JUMP JUMPDEST PUSH1 0x0 DUP1 PUSH20 0xFFFFFFFFFFFFFFFFFFFFFFFFFFFFFFFFFFFFFFFF AND DUP5 PUSH20 0xFFFFFFFFFFFFFFFFFFFFFFFFFFFFFFFFFFFFFFFF AND EQ DUP1 ISZERO PUSH2 0x380 JUMPI POP ADDRESS PUSH20 0xFFFFFFFFFFFFFFFFFFFFFFFFFFFFFFFFFFFFFFFF AND DUP4 PUSH20 0xFFFFFFFFFFFFFFFFFFFFFFFFFFFFFFFFFFFFFFFF AND EQ JUMPDEST PUSH2 0x3BF JUMPI PUSH1 0x40 MLOAD PUSH32 0x8C379A000000000000000000000000000000000000000000000000000000000 DUP2 MSTORE PUSH1 0x4 ADD PUSH2 0x3B6 SWAP1 PUSH2 0x891 JUMP JUMPDEST PUSH1 0x40 MLOAD DUP1 SWAP2 SUB SWAP1 REVERT JUMPDEST DUP2 PUSH2 0x3FF JUMPI PUSH1 0x40 MLOAD PUSH32 0x8C379A000000000000000000000000000000000000000000000000000000000 DUP2 MSTORE PUSH1 0x4 ADD PUSH2 0x3F6 SWAP1 PUSH2 0x8FD JUMP JUMPDEST PUSH1 0x40 MLOAD DUP1 SWAP2 SUB SWAP1 REVERT JUMPDEST PUSH1 0x0 ADDRESS PUSH20 0xFFFFFFFFFFFFFFFFFFFFFFFFFFFFFFFFFFFFFFFF AND PUSH4 0x18160DDD PUSH1 0x40 MLOAD DUP2 PUSH4 0xFFFFFFFF AND PUSH1 0xE0 SHL DUP2 MSTORE PUSH1 0x4 ADD PUSH1 0x20 PUSH1 0x40 MLOAD DUP1 DUP4 SUB DUP2 DUP7 GAS STATICCALL ISZERO DUP1 ISZERO PUSH2 0x44C JUMPI RETURNDATASIZE PUSH1 0x0 DUP1 RETURNDATACOPY RETURNDATASIZE PUSH1 0x0 REVERT JUMPDEST POP POP POP POP PUSH1 0x40 MLOAD RETURNDATASIZE PUSH1 0x1F NOT PUSH1 0x1F DUP3 ADD AND DUP3 ADD DUP1 PUSH1 0x40 MSTORE POP DUP2 ADD SWAP1 PUSH2 0x470 SWAP2 SWAP1 PUSH2 0x932 JUMP JUMPDEST PUSH9 0x3635C9ADC5DEA00000 PUSH2 0x484 SWAP2 SWAP1 PUSH2 0x98E JUMP JUMPDEST SWAP1 POP PUSH1 0x0 PUSH8 0xDE0B6B3A7640000 DUP3 PUSH8 0xDF11778EBCE2000 PUSH2 0x4A5 SWAP2 SWAP1 PUSH2 0xAF5 JUMP JUMPDEST PUSH7 0x38D7EA4C68000 PUSH2 0x4B7 SWAP2 SWAP1 PUSH2 0xB40 JUMP JUMPDEST PUSH2 0x4C1 SWAP2 SWAP1 PUSH2 0xBB1 JUMP JUMPDEST SWAP1 POP PUSH8 0x29A2241AF62C0000 DUP2 GT PUSH2 0x4D8 JUMPI DUP1 PUSH2 0x4E2 JUMP JUMPDEST PUSH8 0x29A2241AF62C0000 JUMPDEST SWAP1 POP DUP1 PUSH8 0xDE0B6B3A7640000 DUP9 PUSH2 0x4F9 SWAP2 SWAP1 PUSH2 0xB40 JUMP JUMPDEST PUSH2 0x503 SWAP2 SWAP1 PUSH2 0xBB1 JUMP JUMPDEST SWAP3 POP POP POP SWAP5 SWAP4 POP POP POP POP JUMP JUMPDEST PUSH1 0x0 DUP1 SLOAD SWAP1 PUSH2 0x100 EXP SWAP1 DIV PUSH20 0xFFFFFFFFFFFFFFFFFFFFFFFFFFFFFFFFFFFFFFFF AND DUP2 JUMP JUMPDEST PUSH1 0x0 ADDRESS PUSH20 0xFFFFFFFFFFFFFFFFFFFFFFFFFFFFFFFFFFFFFFFF AND PUSH4 0x18160DDD PUSH1 0x40 MLOAD DUP2 PUSH4 0xFFFFFFFF AND PUSH1 0xE0 SHL DUP2 MSTORE PUSH1 0x4 ADD PUSH1 0x20 PUSH1 0x40 MLOAD DUP1 DUP4 SUB DUP2 DUP7 GAS STATICCALL ISZERO DUP1 ISZERO PUSH2 0x580 JUMPI RETURNDATASIZE PUSH1 0x0 DUP1 RETURNDATACOPY RETURNDATASIZE PUSH1 0x0 REVERT JUMPDEST POP POP POP POP PUSH1 0x40 MLOAD RETURNDATASIZE PUSH1 0x1F NOT PUSH1 0x1F DUP3 ADD AND DUP3 ADD DUP1 PUSH1 0x40 MSTORE POP DUP2 ADD SWAP1 PUSH2 0x5A4 SWAP2 SWAP1 PUSH2 0x932 JUMP JUMPDEST PUSH9 0x3635C9ADC5DEA00000 PUSH2 0x5B8 SWAP2 SWAP1 PUSH2 0x98E JUMP JUMPDEST SWAP1 POP SWAP1 JUMP JUMPDEST PUSH1 0x0 DUP1 ADDRESS PUSH20 0xFFFFFFFFFFFFFFFFFFFFFFFFFFFFFFFFFFFFFFFF AND PUSH4 0x18160DDD PUSH1 0x40 MLOAD DUP2 PUSH4 0xFFFFFFFF AND PUSH1 0xE0 SHL DUP2 MSTORE PUSH1 0x4 ADD PUSH1 0x20 PUSH1 0x40 MLOAD DUP1 DUP4 SUB DUP2 DUP7 GAS STATICCALL ISZERO DUP1 ISZERO PUSH2 0x60B JUMPI RETURNDATASIZE PUSH1 0x0 DUP1 RETURNDATACOPY RETURNDATASIZE PUSH1 0x0 REVERT JUMPDEST POP POP POP POP PUSH1 0x40 MLOAD RETURNDATASIZE PUSH1 0x1F NOT PUSH1 0x1F DUP3 ADD AND DUP3 ADD DUP1 PUSH1 0x40 MSTORE POP DUP2 ADD SWAP1 PUSH2 0x62F SWAP2 SWAP1 PUSH2 0x932 JUMP JUMPDEST PUSH9 0x3635C9ADC5DEA00000 PUSH2 0x643 SWAP2 SWAP1 PUSH2 0x98E JUMP JUMPDEST SWAP1 POP PUSH1 0x0 PUSH8 0xDE0B6B3A7640000 DUP3 PUSH8 0xDF11778EBCE2000 PUSH2 0x664 SWAP2 SWAP1 PUSH2 0xAF5 JUMP JUMPDEST PUSH7 0x38D7EA4C68000 PUSH2 0x676 SWAP2 SWAP1 PUSH2 0xB40 JUMP JUMPDEST PUSH2 0x680 SWAP2 SWAP1 PUSH2 0xBB1 JUMP JUMPDEST SWAP1 POP PUSH8 0x29A2241AF62C0000 DUP2 GT PUSH2 0x697 JUMPI DUP1 PUSH2 0x6A1 JUMP JUMPDEST PUSH8 0x29A2241AF62C0000 JUMPDEST SWAP3 POP POP POP SWAP1 JUMP JUMPDEST PUSH1 0x0 DUP1 REVERT JUMPDEST PUSH1 0x0 DUP2 SWAP1 POP SWAP2 SWAP1 POP JUMP JUMPDEST PUSH2 0x6C0 DUP2 PUSH2 0x6AD JUMP JUMPDEST DUP2 EQ PUSH2 0x6CB JUMPI PUSH1 0x0 DUP1 REVERT JUMPDEST POP JUMP JUMPDEST PUSH1 0x0 DUP2 CALLDATALOAD SWAP1 POP PUSH2 0x6DD DUP2 PUSH2 0x6B7 JUMP JUMPDEST SWAP3 SWAP2 POP POP JUMP JUMPDEST PUSH1 0x0 PUSH20 0xFFFFFFFFFFFFFFFFFFFFFFFFFFFFFFFFFFFFFFFF DUP3 AND SWAP1 POP SWAP2 SWAP1 POP JUMP JUMPDEST PUSH1 0x0 PUSH2 0x70E DUP3 PUSH2 0x6E3 JUMP JUMPDEST SWAP1 POP SWAP2 SWAP1 POP JUMP JUMPDEST PUSH2 0x71E DUP2 PUSH2 0x703 JUMP JUMPDEST DUP2 EQ PUSH2 0x729 JUMPI PUSH1 0x0 DUP1 REVERT JUMPDEST POP JUMP JUMPDEST PUSH1 0x0 DUP2 CALLDATALOAD SWAP1 POP PUSH2 0x73B DUP2 PUSH2 0x715 JUMP JUMPDEST SWAP3 SWAP2 POP POP JUMP JUMPDEST PUSH1 0x0 DUP2 ISZERO ISZERO SWAP1 POP SWAP2 SWAP1 POP JUMP JUMPDEST PUSH2 0x756 DUP2 PUSH2 0x741 JUMP JUMPDEST DUP2 EQ PUSH2 0x761 JUMPI PUSH1 0x0 DUP1 REVERT JUMPDEST POP JUMP JUMPDEST PUSH1 0x0 DUP2 CALLDATALOAD SWAP1 POP PUSH2 0x773 DUP2 PUSH2 0x74D JUMP JUMPDEST SWAP3 SWAP2 POP POP JUMP JUMPDEST PUSH1 0x0 DUP1 PUSH1 0x0 DUP1 PUSH1 0x80 DUP6 DUP8 SUB SLT ISZERO PUSH2 0x793 JUMPI PUSH2 0x792 PUSH2 0x6A8 JUMP JUMPDEST JUMPDEST PUSH1 0x0 PUSH2 0x7A1 DUP8 DUP3 DUP9 ADD PUSH2 0x6CE JUMP JUMPDEST SWAP5 POP POP PUSH1 0x20 PUSH2 0x7B2 DUP8 DUP3 DUP9 ADD PUSH2 0x72C JUMP JUMPDEST SWAP4 POP POP PUSH1 0x40 PUSH2 0x7C3 DUP8 DUP3 DUP9 ADD PUSH2 0x72C JUMP JUMPDEST SWAP3 POP POP PUSH1 0x60 PUSH2 0x7D4 DUP8 DUP3 DUP9 ADD PUSH2 0x764 JUMP JUMPDEST SWAP2 POP POP SWAP3 SWAP6 SWAP2 SWAP5 POP SWAP3 POP JUMP JUMPDEST PUSH2 0x7E9 DUP2 PUSH2 0x6AD JUMP JUMPDEST DUP3 MSTORE POP POP JUMP JUMPDEST PUSH1 0x0 PUSH1 0x20 DUP3 ADD SWAP1 POP PUSH2 0x804 PUSH1 0x0 DUP4 ADD DUP5 PUSH2 0x7E0 JUMP JUMPDEST SWAP3 SWAP2 POP POP JUMP JUMPDEST PUSH2 0x813 DUP2 PUSH2 0x703 JUMP JUMPDEST DUP3 MSTORE POP POP JUMP JUMPDEST PUSH1 0x0 PUSH1 0x20 DUP3 ADD SWAP1 POP PUSH2 0x82E PUSH1 0x0 DUP4 ADD DUP5 PUSH2 0x80A JUMP JUMPDEST SWAP3 SWAP2 POP POP JUMP JUMPDEST PUSH1 0x0 DUP3 DUP3 MSTORE PUSH1 0x20 DUP3 ADD SWAP1 POP SWAP3 SWAP2 POP POP JUMP JUMPDEST PUSH32 0x496E76616C69642063757272656E636965730000000000000000000000000000 PUSH1 0x0 DUP3 ADD MSTORE POP JUMP JUMPDEST PUSH1 0x0 PUSH2 0x87B PUSH1 0x12 DUP4 PUSH2 0x834 JUMP JUMPDEST SWAP2 POP PUSH2 0x886 DUP3 PUSH2 0x845 JUMP JUMPDEST PUSH1 0x20 DUP3 ADD SWAP1 POP SWAP2 SWAP1 POP JUMP JUMPDEST PUSH1 0x0 PUSH1 0x20 DUP3 ADD SWAP1 POP DUP2 DUP2 SUB PUSH1 0x0 DUP4 ADD MSTORE PUSH2 0x8AA DUP2 PUSH2 0x86E JUMP JUMPDEST SWAP1 POP SWAP2 SWAP1 POP JUMP JUMPDEST PUSH32 0x4F6E6C7920737570706F7274732045544820746F20474C4F5645000000000000 PUSH1 0x0 DUP3 ADD MSTORE POP JUMP JUMPDEST PUSH1 0x0 PUSH2 0x8E7 PUSH1 0x1A DUP4 PUSH2 0x834 JUMP JUMPDEST SWAP2 POP PUSH2 0x8F2 DUP3 PUSH2 0x8B1 JUMP JUMPDEST PUSH1 0x20 DUP3 ADD SWAP1 POP SWAP2 SWAP1 POP JUMP JUMPDEST PUSH1 0x0 PUSH1 0x20 DUP3 ADD SWAP1 POP DUP2 DUP2 SUB PUSH1 0x0 DUP4 ADD MSTORE PUSH2 0x916 DUP2 PUSH2 0x8DA JUMP JUMPDEST SWAP1 POP SWAP2 SWAP1 POP JUMP JUMPDEST PUSH1 0x0 DUP2 MLOAD SWAP1 POP PUSH2 0x92C DUP2 PUSH2 0x6B7 JUMP JUMPDEST SWAP3 SWAP2 POP POP JUMP JUMPDEST PUSH1 0x0 PUSH1 0x20 DUP3 DUP5 SUB SLT ISZERO PUSH2 0x948 JUMPI PUSH2 0x947 PUSH2 0x6A8 JUMP JUMPDEST JUMPDEST PUSH1 0x0 PUSH2 0x956 DUP5 DUP3 DUP6 ADD PUSH2 0x91D JUMP JUMPDEST SWAP2 POP POP SWAP3 SWAP2 POP POP JUMP JUMPDEST PUSH32 0x4E487B7100000000000000000000000000000000000000000000000000000000 PUSH1 0x0 MSTORE PUSH1 0x11 PUSH1 0x4 MSTORE PUSH1 0x24 PUSH1 0x0 REVERT JUMPDEST PUSH1 0x0 PUSH2 0x999 DUP3 PUSH2 0x6AD JUMP JUMPDEST SWAP2 POP PUSH2 0x9A4 DUP4 PUSH2 0x6AD JUMP JUMPDEST SWAP3 POP DUP3 DUP3 SUB SWAP1 POP DUP2 DUP2 GT ISZERO PUSH2 0x9BC JUMPI PUSH2 0x9BB PUSH2 0x95F JUMP JUMPDEST JUMPDEST SWAP3 SWAP2 POP POP JUMP JUMPDEST PUSH1 0x0 DUP2 PUSH1 0x1 SHR SWAP1 POP SWAP2 SWAP1 POP JUMP JUMPDEST PUSH1 0x0 DUP1 DUP3 SWAP2 POP DUP4 SWAP1 POP JUMPDEST PUSH1 0x1 DUP6 GT ISZERO PUSH2 0xA19 JUMPI DUP1 DUP7 DIV DUP2 GT ISZERO PUSH2 0x9F5 JUMPI PUSH2 0x9F4 PUSH2 0x95F JUMP JUMPDEST JUMPDEST PUSH1 0x1 DUP6 AND ISZERO PUSH2 0xA04 JUMPI DUP1 DUP3 MUL SWAP2 POP JUMPDEST DUP1 DUP2 MUL SWAP1 POP PUSH2 0xA12 DUP6 PUSH2 0x9C2 JUMP JUMPDEST SWAP5 POP PUSH2 0x9D9 JUMP JUMPDEST SWAP5 POP SWAP5 SWAP3 POP POP POP JUMP JUMPDEST PUSH1 0x0 DUP3 PUSH2 0xA32 JUMPI PUSH1 0x1 SWAP1 POP PUSH2 0xAEE JUMP JUMPDEST DUP2 PUSH2 0xA40 JUMPI PUSH1 0x0 SWAP1 POP PUSH2 0xAEE JUMP JUMPDEST DUP2 PUSH1 0x1 DUP2 EQ PUSH2 0xA56 JUMPI PUSH1 0x2 DUP2 EQ PUSH2 0xA60 JUMPI PUSH2 0xA8F JUMP JUMPDEST PUSH1 0x1 SWAP2 POP POP PUSH2 0xAEE JUMP JUMPDEST PUSH1 0xFF DUP5 GT ISZERO PUSH2 0xA72 JUMPI PUSH2 0xA71 PUSH2 0x95F JUMP JUMPDEST JUMPDEST DUP4 PUSH1 0x2 EXP SWAP2 POP DUP5 DUP3 GT ISZERO PUSH2 0xA89 JUMPI PUSH2 0xA88 PUSH2 0x95F JUMP JUMPDEST JUMPDEST POP PUSH2 0xAEE JUMP JUMPDEST POP PUSH1 0x20 DUP4 LT PUSH2 0x133 DUP4 LT AND PUSH1 0x4E DUP5 LT PUSH1 0xB DUP5 LT AND OR ISZERO PUSH2 0xAC4 JUMPI DUP3 DUP3 EXP SWAP1 POP DUP4 DUP2 GT ISZERO PUSH2 0xABF JUMPI PUSH2 0xABE PUSH2 0x95F JUMP JUMPDEST JUMPDEST PUSH2 0xAEE JUMP JUMPDEST PUSH2 0xAD1 DUP5 DUP5 DUP5 PUSH1 0x1 PUSH2 0x9CF JUMP JUMPDEST SWAP3 POP SWAP1 POP DUP2 DUP5 DIV DUP2 GT ISZERO PUSH2 0xAE8 JUMPI PUSH2 0xAE7 PUSH2 0x95F JUMP JUMPDEST JUMPDEST DUP2 DUP2 MUL SWAP1 POP JUMPDEST SWAP4 SWAP3 POP POP POP JUMP JUMPDEST PUSH1 0x0 PUSH2 0xB00 DUP3 PUSH2 0x6AD JUMP JUMPDEST SWAP2 POP PUSH2 0xB0B DUP4 PUSH2 0x6AD JUMP JUMPDEST SWAP3 POP PUSH2 0xB38 PUSH32 0xFFFFFFFFFFFFFFFFFFFFFFFFFFFFFFFFFFFFFFFFFFFFFFFFFFFFFFFFFFFFFFFF DUP5 DUP5 PUSH2 0xA22 JUMP JUMPDEST SWAP1 POP SWAP3 SWAP2 POP POP JUMP JUMPDEST PUSH1 0x0 PUSH2 0xB4B DUP3 PUSH2 0x6AD JUMP JUMPDEST SWAP2 POP PUSH2 0xB56 DUP4 PUSH2 0x6AD JUMP JUMPDEST SWAP3 POP DUP3 DUP3 MUL PUSH2 0xB64 DUP2 PUSH2 0x6AD JUMP JUMPDEST SWAP2 POP DUP3 DUP3 DIV DUP5 EQ DUP4 ISZERO OR PUSH2 0xB7B JUMPI PUSH2 0xB7A PUSH2 0x95F JUMP JUMPDEST JUMPDEST POP SWAP3 SWAP2 POP POP JUMP JUMPDEST PUSH32 0x4E487B7100000000000000000000000000000000000000000000000000000000 PUSH1 0x0 MSTORE PUSH1 0x12 PUSH1 0x4 MSTORE PUSH1 0x24 PUSH1 0x0 REVERT JUMPDEST PUSH1 0x0 PUSH2 0xBBC DUP3 PUSH2 0x6AD JUMP JUMPDEST SWAP2 POP PUSH2 0xBC7 DUP4 PUSH2 0x6AD JUMP JUMPDEST SWAP3 POP DUP3 PUSH2 0xBD7 JUMPI PUSH2 0xBD6 PUSH2 0xB82 JUMP JUMPDEST JUMPDEST DUP3 DUP3 DIV SWAP1 POP SWAP3 SWAP2 POP POP JUMP INVALID LOG2 PUSH5 0x6970667358 0x22 SLT KECCAK256 0xD1 SWAP5 SWAP2 0xEF 0xB4 POP INVALID DUP16 ADDRESS JUMPI BASEFEE 0xC7 0xE4 GASLIMIT PUSH19 0xB948258EB8DAA689CD29760FF87A451C466473 PUSH16 0x6C634300081800330000000000000000 "},"methodIdentifiers":{"getAmountInForExactOutput(uint256,address,address,bool)":"41dc44f4","getAmountOutFromExactInput(uint256,address,address,bool)":"d973448b","getCurrentPrice()":"eb91d37e","getStock()":"e38ffcd8","poolManager()":"dc4c90d3"}}}}}