{"@uniswap/v4-core/src/libraries/LPFeeLibrary.sol":{"LPFeeLibrary":{"abi":[{"inputs":[],"name":"FeeTooLarge","type":"error"},{"inputs":[],"name":"DYNAMIC_FEE_FLAG","outputs":[{"internalType":"uint24","name":"","type":"uint24"}],"stateMutability":"view","type":"function"},{"inputs":[],"name":"MAX_LP_FEE","outputs":[{"internalType":"uint24","name":"","type":"uint24"}],"stateMutability":"view","type":"function"},{"inputs":[],"name":"OVERRIDE_FEE_FLAG","outputs":[{"internalType":"uint24","name":"","type":"uint24"}],"stateMutability":"view","type":"function"},{"inputs":[],"name":"REMOVE_OVERRIDE_MASK","outputs":[{"internalType":"uint24","name":"","type":"uint24"}],"stateMutability":"view","type":"function"}],"evm":{"bytecode":{"linkReferences":{},"object":"61015e610053600b82828239805160001a607314610046577f4e487b7100000000000000000000000000000000000000000000000000000000600052600060045260246000fd5b30600052607381538281f3fe73000000000000000000000000000000000000000030146080604052600436106100565760003560e01c80633b01d64d1461005b5780633fc48eba146100795780636f95ebcf14610097578063f26ef49d146100b5575b600080fd5b6100636100d3565b604051610070919061010d565b60405180910390f35b6100816100da565b60405161008e919061010d565b60405180910390f35b61009f6100e1565b6040516100ac919061010d565b60405180910390f35b6100bd6100e8565b6040516100ca919061010d565b60405180910390f35b6240000081565b620f424081565b62bfffff81565b6280000081565b600062ffffff82169050919050565b610107816100ef565b82525050565b600060208201905061012260008301846100fe565b9291505056fea264697066735822122054653f3fd75f2921dc3ee300044d7583226608b96208bd6d276b7d3409bd55a764736f6c63430008180033","opcodes":"PUSH2 0x15E PUSH2 0x53 PUSH1 0xB DUP3 DUP3 DUP3 CODECOPY DUP1 MLOAD PUSH1 0x0 BYTE PUSH1 0x73 EQ PUSH2 0x46 JUMPI PUSH32 0x4E487B7100000000000000000000000000000000000000000000000000000000 PUSH1 0x0 MSTORE PUSH1 0x0 PUSH1 0x4 MSTORE PUSH1 0x24 PUSH1 0x0 REVERT JUMPDEST ADDRESS PUSH1 0x0 MSTORE PUSH1 0x73 DUP2 MSTORE8 DUP3 DUP2 RETURN INVALID PUSH20 0x0 ADDRESS EQ PUSH1 0x80 PUSH1 0x40 MSTORE PUSH1 0x4 CALLDATASIZE LT PUSH2 0x56 JUMPI PUSH1 0x0 CALLDATALOAD PUSH1 0xE0 SHR DUP1 PUSH4 0x3B01D64D EQ PUSH2 0x5B JUMPI DUP1 PUSH4 0x3FC48EBA EQ PUSH2 0x79 JUMPI DUP1 PUSH4 0x6F95EBCF EQ PUSH2 0x97 JUMPI DUP1 PUSH4 0xF26EF49D EQ PUSH2 0xB5 JUMPI JUMPDEST PUSH1 0x0 DUP1 REVERT JUMPDEST PUSH2 0x63 PUSH2 0xD3 JUMP JUMPDEST PUSH1 0x40 MLOAD PUSH2 0x70 SWAP2 SWAP1 PUSH2 0x10D JUMP JUMPDEST PUSH1 0x40 MLOAD DUP1 SWAP2 SUB SWAP1 RETURN JUMPDEST PUSH2 0x81 PUSH2 0xDA JUMP JUMPDEST PUSH1 0x40 MLOAD PUSH2 0x8E SWAP2 SWAP1 PUSH2 0x10D JUMP JUMPDEST PUSH1 0x40 MLOAD DUP1 SWAP2 SUB SWAP1 RETURN JUMPDEST PUSH2 0x9F PUSH2 0xE1 JUMP JUMPDEST PUSH1 0x40 MLOAD PUSH2 0xAC SWAP2 SWAP1 PUSH2 0x10D JUMP JUMPDEST PUSH1 0x40 MLOAD DUP1 SWAP2 SUB SWAP1 RETURN JUMPDEST PUSH2 0xBD PUSH2 0xE8 JUMP JUMPDEST PUSH1 0x40 MLOAD PUSH2 0xCA SWAP2 SWAP1 PUSH2 0x10D JUMP JUMPDEST PUSH1 0x40 MLOAD DUP1 SWAP2 SUB SWAP1 RETURN JUMPDEST PUSH3 0x400000 DUP2 JUMP JUMPDEST PUSH3 0xF4240 DUP2 JUMP JUMPDEST PUSH3 0xBFFFFF DUP2 JUMP JUMPDEST PUSH3 0x800000 DUP2 JUMP JUMPDEST PUSH1 0x0 PUSH3 0xFFFFFF DUP3 AND SWAP1 POP SWAP2 SWAP1 POP JUMP JUMPDEST PUSH2 0x107 DUP2 PUSH2 0xEF JUMP JUMPDEST DUP3 MSTORE POP POP JUMP JUMPDEST PUSH1 0x0 PUSH1 0x20 DUP3 ADD SWAP1 POP PUSH2 0x122 PUSH1 0x0 DUP4 ADD DUP5 PUSH2 0xFE JUMP JUMPDEST SWAP3 SWAP2 POP POP JUMP INVALID LOG2 PUSH5 0x6970667358 0x22 SLT KECCAK256 SLOAD PUSH6 0x3F3FD75F2921 0xDC RETURNDATACOPY 0xE3 STOP DIV 0x4D PUSH22 0x83226608B96208BD6D276B7D3409BD55A764736F6C63 NUMBER STOP ADDMOD XOR STOP CALLER "},"methodIdentifiers":{"DYNAMIC_FEE_FLAG()":"f26ef49d","MAX_LP_FEE()":"3fc48eba","OVERRIDE_FEE_FLAG()":"3b01d64d","REMOVE_OVERRIDE_MASK()":"6f95ebcf"}}}}}