{
  "_format": "hh-sol-artifact-1",
  "contractName": "GLOVE",
  "sourceName": "contracts/GLOVE.sol",
  "abi": [
    {
      "inputs": [
        {
          "internalType": "uint256",
          "name": "initialSupply",
          "type": "uint256"
        },
        {
          "internalType": "contract CustomGloveCurve",
          "name": "_customCurve",
          "type": "address"
        },
        {
          "internalType": "contract DynamicGloveFee",
          "name": "_dynamicFee",
          "type": "address"
        }
      ],
      "stateMutability": "nonpayable",
      "type": "constructor"
    },
    {
      "inputs": [
        {
          "internalType": "address",
          "name": "spender",
          "type": "address"
        },
        {
          "internalType": "uint256",
          "name": "allowance",
          "type": "uint256"
        },
        {
          "internalType": "uint256",
          "name": "needed",
          "type": "uint256"
        }
      ],
      "name": "ERC20InsufficientAllowance",
      "type": "error"
    },
    {
      "inputs": [
        {
          "internalType": "address",
          "name": "sender",
          "type": "address"
        },
        {
          "internalType": "uint256",
          "name": "balance",
          "type": "uint256"
        },
        {
          "internalType": "uint256",
          "name": "needed",
          "type": "uint256"
        }
      ],
      "name": "ERC20InsufficientBalance",
      "type": "error"
    },
    {
      "inputs": [
        {
          "internalType": "address",
          "name": "approver",
          "type": "address"
        }
      ],
      "name": "ERC20InvalidApprover",
      "type": "error"
    },
    {
      "inputs": [
        {
          "internalType": "address",
          "name": "receiver",
          "type": "address"
        }
      ],
      "name": "ERC20InvalidReceiver",
      "type": "error"
    },
    {
      "inputs": [
        {
          "internalType": "address",
          "name": "sender",
          "type": "address"
        }
      ],
      "name": "ERC20InvalidSender",
      "type": "error"
    },
    {
      "inputs": [
        {
          "internalType": "address",
          "name": "spender",
          "type": "address"
        }
      ],
      "name": "ERC20InvalidSpender",
      "type": "error"
    },
    {
      "anonymous": false,
      "inputs": [
        {
          "indexed": true,
          "internalType": "address",
          "name": "owner",
          "type": "address"
        },
        {
          "indexed": true,
          "internalType": "address",
          "name": "spender",
          "type": "address"
        },
        {
          "indexed": false,
          "internalType": "uint256",
          "name": "value",
          "type": "uint256"
        }
      ],
      "name": "Approval",
      "type": "event"
    },
    {
      "anonymous": false,
      "inputs": [
        {
          "indexed": true,
          "internalType": "address",
          "name": "from",
          "type": "address"
        },
        {
          "indexed": true,
          "internalType": "address",
          "name": "to",
          "type": "address"
        },
        {
          "indexed": false,
          "internalType": "uint256",
          "name": "value",
          "type": "uint256"
        }
      ],
      "name": "Transfer",
      "type": "event"
    },
    {
      "inputs": [],
      "name": "MAX_SUPPLY",
      "outputs": [
        {
          "internalType": "uint256",
          "name": "",
          "type": "uint256"
        }
      ],
      "stateMutability": "view",
      "type": "function"
    },
    {
      "inputs": [
        {
          "internalType": "address",
          "name": "owner",
          "type": "address"
        },
        {
          "internalType": "address",
          "name": "spender",
          "type": "address"
        }
      ],
      "name": "allowance",
      "outputs": [
        {
          "internalType": "uint256",
          "name": "",
          "type": "uint256"
        }
      ],
      "stateMutability": "view",
      "type": "function"
    },
    {
      "inputs": [
        {
          "internalType": "address",
          "name": "spender",
          "type": "address"
        },
        {
          "internalType": "uint256",
          "name": "value",
          "type": "uint256"
        }
      ],
      "name": "approve",
      "outputs": [
        {
          "internalType": "bool",
          "name": "",
          "type": "bool"
        }
      ],
      "stateMutability": "nonpayable",
      "type": "function"
    },
    {
      "inputs": [
        {
          "internalType": "address",
          "name": "account",
          "type": "address"
        }
      ],
      "name": "balanceOf",
      "outputs": [
        {
          "internalType": "uint256",
          "name": "",
          "type": "uint256"
        }
      ],
      "stateMutability": "view",
      "type": "function"
    },
    {
      "inputs": [
        {
          "internalType": "uint256",
          "name": "amount",
          "type": "uint256"
        }
      ],
      "name": "buy",
      "outputs": [],
      "stateMutability": "payable",
      "type": "function"
    },
    {
      "inputs": [],
      "name": "customCurve",
      "outputs": [
        {
          "internalType": "contract CustomGloveCurve",
          "name": "",
          "type": "address"
        }
      ],
      "stateMutability": "view",
      "type": "function"
    },
    {
      "inputs": [],
      "name": "decimals",
      "outputs": [
        {
          "internalType": "uint8",
          "name": "",
          "type": "uint8"
        }
      ],
      "stateMutability": "view",
      "type": "function"
    },
    {
      "inputs": [],
      "name": "dynamicFee",
      "outputs": [
        {
          "internalType": "contract DynamicGloveFee",
          "name": "",
          "type": "address"
        }
      ],
      "stateMutability": "view",
      "type": "function"
    },
    {
      "inputs": [],
      "name": "name",
      "outputs": [
        {
          "internalType": "string",
          "name": "",
          "type": "string"
        }
      ],
      "stateMutability": "view",
      "type": "function"
    },
    {
      "inputs": [
        {
          "internalType": "uint256",
          "name": "amount",
          "type": "uint256"
        }
      ],
      "name": "sell",
      "outputs": [],
      "stateMutability": "nonpayable",
      "type": "function"
    },
    {
      "inputs": [],
      "name": "symbol",
      "outputs": [
        {
          "internalType": "string",
          "name": "",
          "type": "string"
        }
      ],
      "stateMutability": "view",
      "type": "function"
    },
    {
      "inputs": [],
      "name": "totalSupply",
      "outputs": [
        {
          "internalType": "uint256",
          "name": "",
          "type": "uint256"
        }
      ],
      "stateMutability": "view",
      "type": "function"
    },
    {
      "inputs": [
        {
          "internalType": "address",
          "name": "to",
          "type": "address"
        },
        {
          "internalType": "uint256",
          "name": "value",
          "type": "uint256"
        }
      ],
      "name": "transfer",
      "outputs": [
        {
          "internalType": "bool",
          "name": "",
          "type": "bool"
        }
      ],
      "stateMutability": "nonpayable",
      "type": "function"
    },
    {
      "inputs": [
        {
          "internalType": "address",
          "name": "from",
          "type": "address"
        },
        {
          "internalType": "address",
          "name": "to",
          "type": "address"
        },
        {
          "internalType": "uint256",
          "name": "value",
          "type": "uint256"
        }
      ],
      "name": "transferFrom",
      "outputs": [
        {
          "internalType": "bool",
          "name": "",
          "type": "bool"
        }
      ],
      "stateMutability": "nonpayable",
      "type": "function"
    },
    {
      "stateMutability": "payable",
      "type": "receive"
    }
  ],
  "bytecode": "0x60c06040523480156200001157600080fd5b506040516200247238038062002472833981810160405281019062000037919062000556565b6040518060400160405280600981526020017f556e69676c6f76657300000000000000000000000000000000000000000000008152506040518060400160405280600581526020017f474c4f56450000000000000000000000000000000000000000000000000000008152508160039081620000b4919062000822565b508060049081620000c6919062000822565b505050683635c9adc5dea0000083111562000118576040517f08c379a00000000000000000000000000000000000000000000000000000000081526004016200010f9062000990565b60405180910390fd5b8173ffffffffffffffffffffffffffffffffffffffff1660808173ffffffffffffffffffffffffffffffffffffffff16815250508073ffffffffffffffffffffffffffffffffffffffff1660a08173ffffffffffffffffffffffffffffffffffffffff16815250506200019233846200019b60201b60201c565b50505062000ab5565b600073ffffffffffffffffffffffffffffffffffffffff168273ffffffffffffffffffffffffffffffffffffffff1603620002105760006040517fec442f05000000000000000000000000000000000000000000000000000000008152600401620002079190620009c3565b60405180910390fd5b62000224600083836200022860201b60201c565b5050565b600073ffffffffffffffffffffffffffffffffffffffff168373ffffffffffffffffffffffffffffffffffffffff16036200027e57806002600082825462000271919062000a0f565b9250508190555062000354565b60008060008573ffffffffffffffffffffffffffffffffffffffff1673ffffffffffffffffffffffffffffffffffffffff168152602001908152602001600020549050818110156200030d578381836040517fe450d38c000000000000000000000000000000000000000000000000000000008152600401620003049392919062000a5b565b60405180910390fd5b8181036000808673ffffffffffffffffffffffffffffffffffffffff1673ffffffffffffffffffffffffffffffffffffffff16815260200190815260200160002081905550505b600073ffffffffffffffffffffffffffffffffffffffff168273ffffffffffffffffffffffffffffffffffffffff16036200039f5780600260008282540392505081905550620003ec565b806000808473ffffffffffffffffffffffffffffffffffffffff1673ffffffffffffffffffffffffffffffffffffffff168152602001908152602001600020600082825401925050819055505b8173ffffffffffffffffffffffffffffffffffffffff168373ffffffffffffffffffffffffffffffffffffffff167fddf252ad1be2c89b69c2b068fc378daa952ba7f163c4a11628f55a4df523b3ef836040516200044b919062000a98565b60405180910390a3505050565b600080fd5b6000819050919050565b62000472816200045d565b81146200047e57600080fd5b50565b600081519050620004928162000467565b92915050565b600073ffffffffffffffffffffffffffffffffffffffff82169050919050565b6000620004c58262000498565b9050919050565b6000620004d982620004b8565b9050919050565b620004eb81620004cc565b8114620004f757600080fd5b50565b6000815190506200050b81620004e0565b92915050565b60006200051e82620004b8565b9050919050565b620005308162000511565b81146200053c57600080fd5b50565b600081519050620005508162000525565b92915050565b60008060006060848603121562000572576200057162000458565b5b6000620005828682870162000481565b93505060206200059586828701620004fa565b9250506040620005a8868287016200053f565b9150509250925092565b600081519050919050565b7f4e487b7100000000000000000000000000000000000000000000000000000000600052604160045260246000fd5b7f4e487b7100000000000000000000000000000000000000000000000000000000600052602260045260246000fd5b600060028204905060018216806200063457607f821691505b6020821081036200064a5762000649620005ec565b5b50919050565b60008190508160005260206000209050919050565b60006020601f8301049050919050565b600082821b905092915050565b600060088302620006b47fffffffffffffffffffffffffffffffffffffffffffffffffffffffffffffffff8262000675565b620006c0868362000675565b95508019841693508086168417925050509392505050565b6000819050919050565b600062000703620006fd620006f7846200045d565b620006d8565b6200045d565b9050919050565b6000819050919050565b6200071f83620006e2565b620007376200072e826200070a565b84845462000682565b825550505050565b600090565b6200074e6200073f565b6200075b81848462000714565b505050565b5b8181101562000783576200077760008262000744565b60018101905062000761565b5050565b601f821115620007d2576200079c8162000650565b620007a78462000665565b81016020851015620007b7578190505b620007cf620007c68562000665565b83018262000760565b50505b505050565b600082821c905092915050565b6000620007f760001984600802620007d7565b1980831691505092915050565b6000620008128383620007e4565b9150826002028217905092915050565b6200082d82620005b2565b67ffffffffffffffff811115620008495762000848620005bd565b5b6200085582546200061b565b6200086282828562000787565b600060209050601f8311600181146200089a576000841562000885578287015190505b62000891858262000804565b86555062000901565b601f198416620008aa8662000650565b60005b82811015620008d457848901518255600182019150602085019450602081019050620008ad565b86831015620008f45784890151620008f0601f891682620007e4565b8355505b6001600288020188555050505b505050505050565b600082825260208201905092915050565b7f496e697469616c20737570706c792065786365656473206d617820737570706c60008201527f7900000000000000000000000000000000000000000000000000000000000000602082015250565b60006200097860218362000909565b915062000985826200091a565b604082019050919050565b60006020820190508181036000830152620009ab8162000969565b9050919050565b620009bd81620004b8565b82525050565b6000602082019050620009da6000830184620009b2565b92915050565b7f4e487b7100000000000000000000000000000000000000000000000000000000600052601160045260246000fd5b600062000a1c826200045d565b915062000a29836200045d565b925082820190508082111562000a445762000a43620009e0565b5b92915050565b62000a55816200045d565b82525050565b600060608201905062000a726000830186620009b2565b62000a81602083018562000a4a565b62000a90604083018462000a4a565b949350505050565b600060208201905062000aaf600083018462000a4a565b92915050565b60805160a05161197b62000af7600039600081816104e90152818161085101526109e7015260008181610443015281816109410152610af7015261197b6000f3fe6080604052600436106100e15760003560e01c806395d89b411161007f578063d96a094a11610059578063d96a094a146102f1578063dd62ed3e1461030d578063e4849b321461034a578063fc8b6fc214610373576100f6565b806395d89b411461025e578063a9059cbb14610289578063b20d550b146102c6576100f6565b806323b872dd116100bb57806323b872dd1461018e578063313ce567146101cb57806332cb6b0c146101f657806370a0823114610221576100f6565b806306fdde03146100fb578063095ea7b31461012657806318160ddd14610163576100f6565b366100f65760003490506100f48161039e565b005b600080fd5b34801561010757600080fd5b5061011061064e565b60405161011d919061124b565b60405180910390f35b34801561013257600080fd5b5061014d60048036038101906101489190611306565b6106e0565b60405161015a9190611361565b60405180910390f35b34801561016f57600080fd5b50610178610703565b604051610185919061138b565b60405180910390f35b34801561019a57600080fd5b506101b560048036038101906101b091906113a6565b61070d565b6040516101c29190611361565b60405180910390f35b3480156101d757600080fd5b506101e061073c565b6040516101ed9190611415565b60405180910390f35b34801561020257600080fd5b5061020b610745565b604051610218919061138b565b60405180910390f35b34801561022d57600080fd5b5061024860048036038101906102439190611430565b610752565b604051610255919061138b565b60405180910390f35b34801561026a57600080fd5b5061027361079a565b604051610280919061124b565b60405180910390f35b34801561029557600080fd5b506102b060048036038101906102ab9190611306565b61082c565b6040516102bd9190611361565b60405180910390f35b3480156102d257600080fd5b506102db61084f565b6040516102e891906114bc565b60405180910390f35b61030b600480360381019061030691906114d7565b61039e565b005b34801561031957600080fd5b50610334600480360381019061032f9190611504565b610873565b604051610341919061138b565b60405180910390f35b34801561035657600080fd5b50610371600480360381019061036c91906114d7565b6108fa565b005b34801561037f57600080fd5b50610388610af5565b6040516103959190611565565b60405180910390f35b600081116103e1576040517f08c379a00000000000000000000000000000000000000000000000000000000081526004016103d8906115cc565b60405180910390fd5b683635c9adc5dea00000816103f4610703565b6103fe919061161b565b111561043f576040517f08c379a00000000000000000000000000000000000000000000000000000000081526004016104369061169b565b60405180910390fd5b60007f000000000000000000000000000000000000000000000000000000000000000073ffffffffffffffffffffffffffffffffffffffff166341dc44f48360003060016040518563ffffffff1660e01b81526004016104a294939291906116ca565b602060405180830381865afa1580156104bf573d6000803e3d6000fd5b505050506040513d601f19601f820116820180604052508101906104e39190611724565b905060007f000000000000000000000000000000000000000000000000000000000000000073ffffffffffffffffffffffffffffffffffffffff1663ced72f876040518163ffffffff1660e01b8152600401602060405180830381865afa158015610552573d6000803e3d6000fd5b505050506040513d601f19601f820116820180604052508101906105769190611724565b9050600061271082846105899190611751565b61059391906117c2565b8361059e919061161b565b9050803410156105e3576040517f08c379a00000000000000000000000000000000000000000000000000000000081526004016105da9061183f565b60405180910390fd5b8034111561063e573373ffffffffffffffffffffffffffffffffffffffff166108fc8234610611919061185f565b9081150290604051600060405180830381858888f1935050505015801561063c573d6000803e3d6000fd5b505b6106483385610b19565b50505050565b60606003805461065d906118c2565b80601f0160208091040260200160405190810160405280929190818152602001828054610689906118c2565b80156106d65780601f106106ab576101008083540402835291602001916106d6565b820191906000526020600020905b8154815290600101906020018083116106b957829003601f168201915b5050505050905090565b6000806106eb610b9b565b90506106f8818585610ba3565b600191505092915050565b6000600254905090565b600080610718610b9b565b9050610725858285610bb5565b610730858585610c49565b60019150509392505050565b60006012905090565b683635c9adc5dea0000081565b60008060008373ffffffffffffffffffffffffffffffffffffffff1673ffffffffffffffffffffffffffffffffffffffff168152602001908152602001600020549050919050565b6060600480546107a9906118c2565b80601f01602080910402602001604051908101604052809291908181526020018280546107d5906118c2565b80156108225780601f106107f757610100808354040283529160200191610822565b820191906000526020600020905b81548152906001019060200180831161080557829003601f168201915b5050505050905090565b600080610837610b9b565b9050610844818585610c49565b600191505092915050565b7f000000000000000000000000000000000000000000000000000000000000000081565b6000600160008473ffffffffffffffffffffffffffffffffffffffff1673ffffffffffffffffffffffffffffffffffffffff16815260200190815260200160002060008373ffffffffffffffffffffffffffffffffffffffff1673ffffffffffffffffffffffffffffffffffffffff16815260200190815260200160002054905092915050565b6000811161093d576040517f08c379a0000000000000000000000000000000000000000000000000000000008152600401610934906115cc565b60405180910390fd5b60007f000000000000000000000000000000000000000000000000000000000000000073ffffffffffffffffffffffffffffffffffffffff1663d973448b8330600060016040518563ffffffff1660e01b81526004016109a094939291906116ca565b602060405180830381865afa1580156109bd573d6000803e3d6000fd5b505050506040513d601f19601f820116820180604052508101906109e19190611724565b905060007f000000000000000000000000000000000000000000000000000000000000000073ffffffffffffffffffffffffffffffffffffffff1663ced72f876040518163ffffffff1660e01b8152600401602060405180830381865afa158015610a50573d6000803e3d6000fd5b505050506040513d601f19601f82011682018060405250810190610a749190611724565b905060006127108284610a879190611751565b610a9191906117c2565b83610a9c919061185f565b9050610aa83385610d3d565b3373ffffffffffffffffffffffffffffffffffffffff166108fc829081150290604051600060405180830381858888f19350505050158015610aee573d6000803e3d6000fd5b5050505050565b7f000000000000000000000000000000000000000000000000000000000000000081565b600073ffffffffffffffffffffffffffffffffffffffff168273ffffffffffffffffffffffffffffffffffffffff1603610b8b5760006040517fec442f05000000000000000000000000000000000000000000000000000000008152600401610b8291906118f3565b60405180910390fd5b610b9760008383610dbf565b5050565b600033905090565b610bb08383836001610fe4565b505050565b6000610bc18484610873565b90507fffffffffffffffffffffffffffffffffffffffffffffffffffffffffffffffff8114610c435781811015610c33578281836040517ffb8f41b2000000000000000000000000000000000000000000000000000000008152600401610c2a9392919061190e565b60405180910390fd5b610c4284848484036000610fe4565b5b50505050565b600073ffffffffffffffffffffffffffffffffffffffff168373ffffffffffffffffffffffffffffffffffffffff1603610cbb5760006040517f96c6fd1e000000000000000000000000000000000000000000000000000000008152600401610cb291906118f3565b60405180910390fd5b600073ffffffffffffffffffffffffffffffffffffffff168273ffffffffffffffffffffffffffffffffffffffff1603610d2d5760006040517fec442f05000000000000000000000000000000000000000000000000000000008152600401610d2491906118f3565b60405180910390fd5b610d38838383610dbf565b505050565b600073ffffffffffffffffffffffffffffffffffffffff168273ffffffffffffffffffffffffffffffffffffffff1603610daf5760006040517f96c6fd1e000000000000000000000000000000000000000000000000000000008152600401610da691906118f3565b60405180910390fd5b610dbb82600083610dbf565b5050565b600073ffffffffffffffffffffffffffffffffffffffff168373ffffffffffffffffffffffffffffffffffffffff1603610e11578060026000828254610e05919061161b565b92505081905550610ee4565b60008060008573ffffffffffffffffffffffffffffffffffffffff1673ffffffffffffffffffffffffffffffffffffffff16815260200190815260200160002054905081811015610e9d578381836040517fe450d38c000000000000000000000000000000000000000000000000000000008152600401610e949392919061190e565b60405180910390fd5b8181036000808673ffffffffffffffffffffffffffffffffffffffff1673ffffffffffffffffffffffffffffffffffffffff16815260200190815260200160002081905550505b600073ffffffffffffffffffffffffffffffffffffffff168273ffffffffffffffffffffffffffffffffffffffff1603610f2d5780600260008282540392505081905550610f7a565b806000808473ffffffffffffffffffffffffffffffffffffffff1673ffffffffffffffffffffffffffffffffffffffff168152602001908152602001600020600082825401925050819055505b8173ffffffffffffffffffffffffffffffffffffffff168373ffffffffffffffffffffffffffffffffffffffff167fddf252ad1be2c89b69c2b068fc378daa952ba7f163c4a11628f55a4df523b3ef83604051610fd7919061138b565b60405180910390a3505050565b600073ffffffffffffffffffffffffffffffffffffffff168473ffffffffffffffffffffffffffffffffffffffff16036110565760006040517fe602df0500000000000000000000000000000000000000000000000000000000815260040161104d91906118f3565b60405180910390fd5b600073ffffffffffffffffffffffffffffffffffffffff168373ffffffffffffffffffffffffffffffffffffffff16036110c85760006040517f94280d620000000000000000000000000000000000000000000000000000000081526004016110bf91906118f3565b60405180910390fd5b81600160008673ffffffffffffffffffffffffffffffffffffffff1673ffffffffffffffffffffffffffffffffffffffff16815260200190815260200160002060008573ffffffffffffffffffffffffffffffffffffffff1673ffffffffffffffffffffffffffffffffffffffff1681526020019081526020016000208190555080156111b5578273ffffffffffffffffffffffffffffffffffffffff168473ffffffffffffffffffffffffffffffffffffffff167f8c5be1e5ebec7d5bd14f71427d1e84f3dd0314c0f7b2291e5b200ac8c7c3b925846040516111ac919061138b565b60405180910390a35b50505050565b600081519050919050565b600082825260208201905092915050565b60005b838110156111f55780820151818401526020810190506111da565b60008484015250505050565b6000601f19601f8301169050919050565b600061121d826111bb565b61122781856111c6565b93506112378185602086016111d7565b61124081611201565b840191505092915050565b600060208201905081810360008301526112658184611212565b905092915050565b600080fd5b600073ffffffffffffffffffffffffffffffffffffffff82169050919050565b600061129d82611272565b9050919050565b6112ad81611292565b81146112b857600080fd5b50565b6000813590506112ca816112a4565b92915050565b6000819050919050565b6112e3816112d0565b81146112ee57600080fd5b50565b600081359050611300816112da565b92915050565b6000806040838503121561131d5761131c61126d565b5b600061132b858286016112bb565b925050602061133c858286016112f1565b9150509250929050565b60008115159050919050565b61135b81611346565b82525050565b60006020820190506113766000830184611352565b92915050565b611385816112d0565b82525050565b60006020820190506113a0600083018461137c565b92915050565b6000806000606084860312156113bf576113be61126d565b5b60006113cd868287016112bb565b93505060206113de868287016112bb565b92505060406113ef868287016112f1565b9150509250925092565b600060ff82169050919050565b61140f816113f9565b82525050565b600060208201905061142a6000830184611406565b92915050565b6000602082840312156114465761144561126d565b5b6000611454848285016112bb565b91505092915050565b6000819050919050565b600061148261147d61147884611272565b61145d565b611272565b9050919050565b600061149482611467565b9050919050565b60006114a682611489565b9050919050565b6114b68161149b565b82525050565b60006020820190506114d160008301846114ad565b92915050565b6000602082840312156114ed576114ec61126d565b5b60006114fb848285016112f1565b91505092915050565b6000806040838503121561151b5761151a61126d565b5b6000611529858286016112bb565b925050602061153a858286016112bb565b9150509250929050565b600061154f82611489565b9050919050565b61155f81611544565b82525050565b600060208201905061157a6000830184611556565b92915050565b7f416d6f756e74206d7573742062652067726561746572207468616e207a65726f600082015250565b60006115b66020836111c6565b91506115c182611580565b602082019050919050565b600060208201905081810360008301526115e5816115a9565b9050919050565b7f4e487b7100000000000000000000000000000000000000000000000000000000600052601160045260246000fd5b6000611626826112d0565b9150611631836112d0565b9250828201905080821115611649576116486115ec565b5b92915050565b7f50757263686173652065786365656473206d617820737570706c790000000000600082015250565b6000611685601b836111c6565b91506116908261164f565b602082019050919050565b600060208201905081810360008301526116b481611678565b9050919050565b6116c481611292565b82525050565b60006080820190506116df600083018761137c565b6116ec60208301866116bb565b6116f960408301856116bb565b6117066060830184611352565b95945050505050565b60008151905061171e816112da565b92915050565b60006020828403121561173a5761173961126d565b5b60006117488482850161170f565b91505092915050565b600061175c826112d0565b9150611767836112d0565b9250828202611775816112d0565b9150828204841483151761178c5761178b6115ec565b5b5092915050565b7f4e487b7100000000000000000000000000000000000000000000000000000000600052601260045260246000fd5b60006117cd826112d0565b91506117d8836112d0565b9250826117e8576117e7611793565b5b828204905092915050565b7f496e73756666696369656e74207061796d656e74000000000000000000000000600082015250565b60006118296014836111c6565b9150611834826117f3565b602082019050919050565b600060208201905081810360008301526118588161181c565b9050919050565b600061186a826112d0565b9150611875836112d0565b925082820390508181111561188d5761188c6115ec565b5b92915050565b7f4e487b7100000000000000000000000000000000000000000000000000000000600052602260045260246000fd5b600060028204905060018216806118da57607f821691505b6020821081036118ed576118ec611893565b5b50919050565b600060208201905061190860008301846116bb565b92915050565b600060608201905061192360008301866116bb565b611930602083018561137c565b61193d604083018461137c565b94935050505056fea26469706673582212206f61e1ae10291ac06b75f9bf7924190eb4efaff1ab1755919be1a63ea8390ca664736f6c63430008180033",
  "linkReferences": {},
  "deployedLinkReferences": {}
}