{
  "_format": "hh-sol-artifact-1",
  "contractName": "ProtocolFeeLibrary",
  "sourceName": "@uniswap/v4-core/src/libraries/ProtocolFeeLibrary.sol",
  "abi": [
    {
      "inputs": [],
      "name": "MAX_PROTOCOL_FEE",
      "outputs": [
        {
          "internalType": "uint16",
          "name": "",
          "type": "uint16"
        }
      ],
      "stateMutability": "view",
      "type": "function"
    }
  ],
  "bytecode": "0x60c2610052600b82828239805160001a607314610045577f4e487b7100000000000000000000000000000000000000000000000000000000600052600060045260246000fd5b30600052607381538281f3fe730000000000000000000000000000000000000000301460806040526004361060335760003560e01c8063b8ca3b83146038575b600080fd5b603e6052565b604051604991906073565b60405180910390f35b6103e881565b600061ffff82169050919050565b606d816058565b82525050565b6000602082019050608660008301846066565b9291505056fea264697066735822122059ce84ef7cde5ce2f973a69ae405f2c41a0c6b4f518eaffdad994b021a0b72b264736f6c63430008180033",
  "linkReferences": {},
  "deployedLinkReferences": {}
}