{
  "_format": "hh-sol-artifact-1",
  "contractName": "LPFeeLibrary",
  "sourceName": "@uniswap/v4-core/src/libraries/LPFeeLibrary.sol",
  "abi": [
    {
      "inputs": [],
      "name": "FeeTooLarge",
      "type": "error"
    },
    {
      "inputs": [],
      "name": "DYNAMIC_FEE_FLAG",
      "outputs": [
        {
          "internalType": "uint24",
          "name": "",
          "type": "uint24"
        }
      ],
      "stateMutability": "view",
      "type": "function"
    },
    {
      "inputs": [],
      "name": "MAX_LP_FEE",
      "outputs": [
        {
          "internalType": "uint24",
          "name": "",
          "type": "uint24"
        }
      ],
      "stateMutability": "view",
      "type": "function"
    },
    {
      "inputs": [],
      "name": "OVERRIDE_FEE_FLAG",
      "outputs": [
        {
          "internalType": "uint24",
          "name": "",
          "type": "uint24"
        }
      ],
      "stateMutability": "view",
      "type": "function"
    },
    {
      "inputs": [],
      "name": "REMOVE_OVERRIDE_MASK",
      "outputs": [
        {
          "internalType": "uint24",
          "name": "",
          "type": "uint24"
        }
      ],
      "stateMutability": "view",
      "type": "function"
    }
  ],
  "bytecode": "0x61015e610053600b82828239805160001a607314610046577f4e487b7100000000000000000000000000000000000000000000000000000000600052600060045260246000fd5b30600052607381538281f3fe73000000000000000000000000000000000000000030146080604052600436106100565760003560e01c80633b01d64d1461005b5780633fc48eba146100795780636f95ebcf14610097578063f26ef49d146100b5575b600080fd5b6100636100d3565b604051610070919061010d565b60405180910390f35b6100816100da565b60405161008e919061010d565b60405180910390f35b61009f6100e1565b6040516100ac919061010d565b60405180910390f35b6100bd6100e8565b6040516100ca919061010d565b60405180910390f35b6240000081565b620f424081565b62bfffff81565b6280000081565b600062ffffff82169050919050565b610107816100ef565b82525050565b600060208201905061012260008301846100fe565b9291505056fea264697066735822122054653f3fd75f2921dc3ee300044d7583226608b96208bd6d276b7d3409bd55a764736f6c63430008180033",
  "linkReferences": {},
  "deployedLinkReferences": {}
}