{
  "_format": "hh-sol-artifact-1",
  "contractName": "CustomGloveCurve",
  "sourceName": "contracts/CustomGloveCurve.sol",
  "abi": [
    {
      "inputs": [
        {
          "internalType": "address",
          "name": "_poolManager",
          "type": "address"
        }
      ],
      "stateMutability": "nonpayable",
      "type": "constructor"
    },
    {
      "inputs": [
        {
          "internalType": "uint256",
          "name": "amountOut",
          "type": "uint256"
        },
        {
          "internalType": "address",
          "name": "input",
          "type": "address"
        },
        {
          "internalType": "address",
          "name": "output",
          "type": "address"
        },
        {
          "internalType": "bool",
          "name": "zeroForOne",
          "type": "bool"
        }
      ],
      "name": "getAmountInForExactOutput",
      "outputs": [
        {
          "internalType": "uint256",
          "name": "amountIn",
          "type": "uint256"
        }
      ],
      "stateMutability": "view",
      "type": "function"
    },
    {
      "inputs": [
        {
          "internalType": "uint256",
          "name": "amountIn",
          "type": "uint256"
        },
        {
          "internalType": "address",
          "name": "input",
          "type": "address"
        },
        {
          "internalType": "address",
          "name": "output",
          "type": "address"
        },
        {
          "internalType": "bool",
          "name": "zeroForOne",
          "type": "bool"
        }
      ],
      "name": "getAmountOutFromExactInput",
      "outputs": [
        {
          "internalType": "uint256",
          "name": "amountOut",
          "type": "uint256"
        }
      ],
      "stateMutability": "view",
      "type": "function"
    },
    {
      "inputs": [],
      "name": "getCurrentPrice",
      "outputs": [
        {
          "internalType": "uint256",
          "name": "",
          "type": "uint256"
        }
      ],
      "stateMutability": "view",
      "type": "function"
    },
    {
      "inputs": [],
      "name": "getStock",
      "outputs": [
        {
          "internalType": "uint256",
          "name": "",
          "type": "uint256"
        }
      ],
      "stateMutability": "view",
      "type": "function"
    },
    {
      "inputs": [],
      "name": "poolManager",
      "outputs": [
        {
          "internalType": "address",
          "name": "",
          "type": "address"
        }
      ],
      "stateMutability": "view",
      "type": "function"
    }
  ],
  "bytecode": "0x608060405234801561001057600080fd5b50604051610d2f380380610d2f833981810160405281019061003291906100db565b806000806101000a81548173ffffffffffffffffffffffffffffffffffffffff021916908373ffffffffffffffffffffffffffffffffffffffff16021790555050610108565b600080fd5b600073ffffffffffffffffffffffffffffffffffffffff82169050919050565b60006100a88261007d565b9050919050565b6100b88161009d565b81146100c357600080fd5b50565b6000815190506100d5816100af565b92915050565b6000602082840312156100f1576100f0610078565b5b60006100ff848285016100c6565b91505092915050565b610c18806101176000396000f3fe608060405234801561001057600080fd5b50600436106100575760003560e01c806341dc44f41461005c578063d973448b1461008c578063dc4c90d3146100bc578063e38ffcd8146100da578063eb91d37e146100f8575b600080fd5b61007660048036038101906100719190610779565b610116565b60405161008391906107ef565b60405180910390f35b6100a660048036038101906100a19190610779565b610318565b6040516100b391906107ef565b60405180910390f35b6100c461050f565b6040516100d19190610819565b60405180910390f35b6100e2610533565b6040516100ef91906107ef565b60405180910390f35b6101006105bd565b60405161010d91906107ef565b60405180910390f35b60008073ffffffffffffffffffffffffffffffffffffffff168473ffffffffffffffffffffffffffffffffffffffff1614801561017e57503073ffffffffffffffffffffffffffffffffffffffff168373ffffffffffffffffffffffffffffffffffffffff16145b6101bd576040517f08c379a00000000000000000000000000000000000000000000000000000000081526004016101b490610891565b60405180910390fd5b816101fd576040517f08c379a00000000000000000000000000000000000000000000000000000000081526004016101f4906108fd565b60405180910390fd5b6000853073ffffffffffffffffffffffffffffffffffffffff166318160ddd6040518163ffffffff1660e01b8152600401602060405180830381865afa15801561024b573d6000803e3d6000fd5b505050506040513d601f19601f8201168201806040525081019061026f9190610932565b683635c9adc5dea00000610283919061098e565b61028d919061098e565b90506000670de0b6b3a764000082670df11778ebce20006102ae9190610af5565b66038d7ea4c680006102c09190610b40565b6102ca9190610bb1565b90506729a2241af62c000081116102e157806102eb565b6729a2241af62c00005b9050670de0b6b3a764000081886103029190610b40565b61030c9190610bb1565b92505050949350505050565b60008073ffffffffffffffffffffffffffffffffffffffff168473ffffffffffffffffffffffffffffffffffffffff1614801561038057503073ffffffffffffffffffffffffffffffffffffffff168373ffffffffffffffffffffffffffffffffffffffff16145b6103bf576040517f08c379a00000000000000000000000000000000000000000000000000000000081526004016103b690610891565b60405180910390fd5b816103ff576040517f08c379a00000000000000000000000000000000000000000000000000000000081526004016103f6906108fd565b60405180910390fd5b60003073ffffffffffffffffffffffffffffffffffffffff166318160ddd6040518163ffffffff1660e01b8152600401602060405180830381865afa15801561044c573d6000803e3d6000fd5b505050506040513d601f19601f820116820180604052508101906104709190610932565b683635c9adc5dea00000610484919061098e565b90506000670de0b6b3a764000082670df11778ebce20006104a59190610af5565b66038d7ea4c680006104b79190610b40565b6104c19190610bb1565b90506729a2241af62c000081116104d857806104e2565b6729a2241af62c00005b905080670de0b6b3a7640000886104f99190610b40565b6105039190610bb1565b92505050949350505050565b60008054906101000a900473ffffffffffffffffffffffffffffffffffffffff1681565b60003073ffffffffffffffffffffffffffffffffffffffff166318160ddd6040518163ffffffff1660e01b8152600401602060405180830381865afa158015610580573d6000803e3d6000fd5b505050506040513d601f19601f820116820180604052508101906105a49190610932565b683635c9adc5dea000006105b8919061098e565b905090565b6000803073ffffffffffffffffffffffffffffffffffffffff166318160ddd6040518163ffffffff1660e01b8152600401602060405180830381865afa15801561060b573d6000803e3d6000fd5b505050506040513d601f19601f8201168201806040525081019061062f9190610932565b683635c9adc5dea00000610643919061098e565b90506000670de0b6b3a764000082670df11778ebce20006106649190610af5565b66038d7ea4c680006106769190610b40565b6106809190610bb1565b90506729a2241af62c0000811161069757806106a1565b6729a2241af62c00005b9250505090565b600080fd5b6000819050919050565b6106c0816106ad565b81146106cb57600080fd5b50565b6000813590506106dd816106b7565b92915050565b600073ffffffffffffffffffffffffffffffffffffffff82169050919050565b600061070e826106e3565b9050919050565b61071e81610703565b811461072957600080fd5b50565b60008135905061073b81610715565b92915050565b60008115159050919050565b61075681610741565b811461076157600080fd5b50565b6000813590506107738161074d565b92915050565b60008060008060808587031215610793576107926106a8565b5b60006107a1878288016106ce565b94505060206107b28782880161072c565b93505060406107c38782880161072c565b92505060606107d487828801610764565b91505092959194509250565b6107e9816106ad565b82525050565b600060208201905061080460008301846107e0565b92915050565b61081381610703565b82525050565b600060208201905061082e600083018461080a565b92915050565b600082825260208201905092915050565b7f496e76616c69642063757272656e636965730000000000000000000000000000600082015250565b600061087b601283610834565b915061088682610845565b602082019050919050565b600060208201905081810360008301526108aa8161086e565b9050919050565b7f4f6e6c7920737570706f7274732045544820746f20474c4f5645000000000000600082015250565b60006108e7601a83610834565b91506108f2826108b1565b602082019050919050565b60006020820190508181036000830152610916816108da565b9050919050565b60008151905061092c816106b7565b92915050565b600060208284031215610948576109476106a8565b5b60006109568482850161091d565b91505092915050565b7f4e487b7100000000000000000000000000000000000000000000000000000000600052601160045260246000fd5b6000610999826106ad565b91506109a4836106ad565b92508282039050818111156109bc576109bb61095f565b5b92915050565b60008160011c9050919050565b6000808291508390505b6001851115610a19578086048111156109f5576109f461095f565b5b6001851615610a045780820291505b8081029050610a12856109c2565b94506109d9565b94509492505050565b600082610a325760019050610aee565b81610a405760009050610aee565b8160018114610a565760028114610a6057610a8f565b6001915050610aee565b60ff841115610a7257610a7161095f565b5b8360020a915084821115610a8957610a8861095f565b5b50610aee565b5060208310610133831016604e8410600b8410161715610ac45782820a905083811115610abf57610abe61095f565b5b610aee565b610ad184848460016109cf565b92509050818404811115610ae857610ae761095f565b5b81810290505b9392505050565b6000610b00826106ad565b9150610b0b836106ad565b9250610b387fffffffffffffffffffffffffffffffffffffffffffffffffffffffffffffffff8484610a22565b905092915050565b6000610b4b826106ad565b9150610b56836106ad565b9250828202610b64816106ad565b91508282048414831517610b7b57610b7a61095f565b5b5092915050565b7f4e487b7100000000000000000000000000000000000000000000000000000000600052601260045260246000fd5b6000610bbc826106ad565b9150610bc7836106ad565b925082610bd757610bd6610b82565b5b82820490509291505056fea2646970667358221220d19491efb450fe8f305748c7e44572b948258eb8daa689cd29760ff87a451c4664736f6c63430008180033",
  "linkReferences": {},
  "deployedLinkReferences": {}
}